{
  "_format": "hh-sol-artifact-1",
  "contractName": "PropertyRegistry",
  "sourceName": "contracts/PropertyRegistry.sol",
  "abi": [
    {
      "inputs": [],
      "stateMutability": "nonpayable",
      "type": "constructor"
    },
    {
      "inputs": [],
      "name": "DuplicateProperty",
      "type": "error"
    },
    {
      "inputs": [],
      "name": "InvalidAddress",
      "type": "error"
    },
    {
      "inputs": [],
      "name": "InvalidData",
      "type": "error"
    },
    {
      "inputs": [],
      "name": "InvalidProperty",
      "type": "error"
    },
    {
      "inputs": [],
      "name": "NotAdmin",
      "type": "error"
    },
    {
      "inputs": [],
      "name": "NotPropertyOwner",
      "type": "error"
    },
    {
      "inputs": [],
      "name": "UnauthorizedTransferContract",
      "type": "error"
    },
    {
      "anonymous": false,
      "inputs": [
        {
          "indexed": true,
          "internalType": "uint256",
          "name": "propertyId",
          "type": "uint256"
        },
        {
          "indexed": true,
          "internalType": "address",
          "name": "fromOwner",
          "type": "address"
        },
        {
          "indexed": true,
          "internalType": "address",
          "name": "toOwner",
          "type": "address"
        }
      ],
      "name": "PropertyOwnershipTransferred",
      "type": "event"
    },
    {
      "anonymous": false,
      "inputs": [
        {
          "indexed": true,
          "internalType": "uint256",
          "name": "propertyId",
          "type": "uint256"
        },
        {
          "indexed": true,
          "internalType": "address",
          "name": "owner",
          "type": "address"
        },
        {
          "indexed": false,
          "internalType": "string",
          "name": "khasraNumber",
          "type": "string"
        },
        {
          "indexed": false,
          "internalType": "string",
          "name": "surveyNumber",
          "type": "string"
        },
        {
          "indexed": false,
          "internalType": "string",
          "name": "plotNumber",
          "type": "string"
        }
      ],
      "name": "PropertyRegistered",
      "type": "event"
    },
    {
      "anonymous": false,
      "inputs": [
        {
          "indexed": true,
          "internalType": "uint256",
          "name": "propertyId",
          "type": "uint256"
        },
        {
          "indexed": false,
          "internalType": "string",
          "name": "location",
          "type": "string"
        },
        {
          "indexed": false,
          "internalType": "uint256",
          "name": "area",
          "type": "uint256"
        }
      ],
      "name": "PropertyUpdated",
      "type": "event"
    },
    {
      "anonymous": false,
      "inputs": [
        {
          "indexed": true,
          "internalType": "address",
          "name": "transferContract",
          "type": "address"
        }
      ],
      "name": "TransferContractUpdated",
      "type": "event"
    },
    {
      "inputs": [],
      "name": "admin",
      "outputs": [
        {
          "internalType": "address",
          "name": "",
          "type": "address"
        }
      ],
      "stateMutability": "view",
      "type": "function"
    },
    {
      "inputs": [
        {
          "internalType": "uint256",
          "name": "propertyId",
          "type": "uint256"
        }
      ],
      "name": "exists",
      "outputs": [
        {
          "internalType": "bool",
          "name": "",
          "type": "bool"
        }
      ],
      "stateMutability": "view",
      "type": "function"
    },
    {
      "inputs": [
        {
          "internalType": "uint256",
          "name": "propertyId",
          "type": "uint256"
        }
      ],
      "name": "getProperty",
      "outputs": [
        {
          "components": [
            {
              "internalType": "uint256",
              "name": "propertyId",
              "type": "uint256"
            },
            {
              "internalType": "string",
              "name": "khasraNumber",
              "type": "string"
            },
            {
              "internalType": "string",
              "name": "surveyNumber",
              "type": "string"
            },
            {
              "internalType": "string",
              "name": "plotNumber",
              "type": "string"
            },
            {
              "internalType": "string",
              "name": "location",
              "type": "string"
            },
            {
              "internalType": "uint256",
              "name": "area",
              "type": "uint256"
            },
            {
              "internalType": "address",
              "name": "currentOwner",
              "type": "address"
            },
            {
              "internalType": "uint256",
              "name": "registeredAt",
              "type": "uint256"
            },
            {
              "internalType": "uint256",
              "name": "updatedAt",
              "type": "uint256"
            },
            {
              "internalType": "bool",
              "name": "exists",
              "type": "bool"
            }
          ],
          "internalType": "struct PropertyRegistry.Property",
          "name": "",
          "type": "tuple"
        }
      ],
      "stateMutability": "view",
      "type": "function"
    },
    {
      "inputs": [],
      "name": "nextPropertyId",
      "outputs": [
        {
          "internalType": "uint256",
          "name": "",
          "type": "uint256"
        }
      ],
      "stateMutability": "view",
      "type": "function"
    },
    {
      "inputs": [
        {
          "internalType": "uint256",
          "name": "propertyId",
          "type": "uint256"
        }
      ],
      "name": "ownerOf",
      "outputs": [
        {
          "internalType": "address",
          "name": "",
          "type": "address"
        }
      ],
      "stateMutability": "view",
      "type": "function"
    },
    {
      "inputs": [
        {
          "internalType": "string",
          "name": "khasraNumber",
          "type": "string"
        },
        {
          "internalType": "string",
          "name": "surveyNumber",
          "type": "string"
        },
        {
          "internalType": "string",
          "name": "plotNumber",
          "type": "string"
        },
        {
          "internalType": "string",
          "name": "location",
          "type": "string"
        },
        {
          "internalType": "uint256",
          "name": "area",
          "type": "uint256"
        },
        {
          "internalType": "address",
          "name": "owner",
          "type": "address"
        }
      ],
      "name": "registerProperty",
      "outputs": [
        {
          "internalType": "uint256",
          "name": "propertyId",
          "type": "uint256"
        }
      ],
      "stateMutability": "nonpayable",
      "type": "function"
    },
    {
      "inputs": [
        {
          "internalType": "address",
          "name": "transferContractAddress",
          "type": "address"
        }
      ],
      "name": "setTransferContract",
      "outputs": [],
      "stateMutability": "nonpayable",
      "type": "function"
    },
    {
      "inputs": [],
      "name": "transferContract",
      "outputs": [
        {
          "internalType": "address",
          "name": "",
          "type": "address"
        }
      ],
      "stateMutability": "view",
      "type": "function"
    },
    {
      "inputs": [
        {
          "internalType": "uint256",
          "name": "propertyId",
          "type": "uint256"
        },
        {
          "internalType": "address",
          "name": "newOwner",
          "type": "address"
        }
      ],
      "name": "transferOwnership",
      "outputs": [],
      "stateMutability": "nonpayable",
      "type": "function"
    },
    {
      "inputs": [
        {
          "internalType": "uint256",
          "name": "propertyId",
          "type": "uint256"
        },
        {
          "internalType": "address",
          "name": "expectedCurrentOwner",
          "type": "address"
        },
        {
          "internalType": "address",
          "name": "newOwner",
          "type": "address"
        }
      ],
      "name": "transferOwnershipByContract",
      "outputs": [],
      "stateMutability": "nonpayable",
      "type": "function"
    },
    {
      "inputs": [
        {
          "internalType": "uint256",
          "name": "propertyId",
          "type": "uint256"
        },
        {
          "internalType": "string",
          "name": "location",
          "type": "string"
        },
        {
          "internalType": "uint256",
          "name": "area",
          "type": "uint256"
        }
      ],
      "name": "updatePropertyMetadata",
      "outputs": [],
      "stateMutability": "nonpayable",
      "type": "function"
    }
  ],
  "bytecode": "0x60a06040526001805534801561001457600080fd5b503360805260805161135761003b600039600081816101c80152610b2f01526113576000f3fe608060405234801561001057600080fd5b50600436106100a95760003560e01c80637bc39341116100715780637bc39341146101645780638c207aad14610177578063b4db2a011461018a578063dd9da9d31461019d578063e3911c76146101b0578063f851a440146101c357600080fd5b806329507f73146100ae57806332665ffb146100c357806339500f34146100ec5780634f558e79146101035780636352211e14610139575b600080fd5b6100c16100bc366004610cd8565b6101ea565b005b6100d66100d1366004610d04565b610268565b6040516100e39190610d63565b60405180910390f35b6100f560015481565b6040519081526020016100e3565b610129610111366004610d04565b60009081526002602052604090206009015460ff1690565b60405190151581526020016100e3565b61014c610147366004610d04565b6105b3565b6040516001600160a01b0390911681526020016100e3565b60005461014c906001600160a01b031681565b6100f5610185366004610e85565b610604565b6100c1610198366004610f62565b610977565b6100c16101ab366004610f9e565b610a1c565b6100c16101be366004610ff1565b610b24565b61014c7f000000000000000000000000000000000000000000000000000000000000000081565b600082815260026020526040902060090154829060ff1661021e576040516302f70f1d60e01b815260040160405180910390fd5b6000818152600260205260409020600601546001600160a01b0316331461025857604051639a517dab60e01b815260040160405180910390fd5b610263833384610bdc565b505050565b6102c960405180610140016040528060008152602001606081526020016060815260200160608152602001606081526020016000815260200160006001600160a01b0316815260200160008152602001600081526020016000151581525090565b60008281526002602052604090206009015460ff166102fb576040516302f70f1d60e01b815260040160405180910390fd5b60026000838152602001908152602001600020604051806101400160405290816000820154815260200160018201805461033490611013565b80601f016020809104026020016040519081016040528092919081815260200182805461036090611013565b80156103ad5780601f10610382576101008083540402835291602001916103ad565b820191906000526020600020905b81548152906001019060200180831161039057829003601f168201915b505050505081526020016002820180546103c690611013565b80601f01602080910402602001604051908101604052809291908181526020018280546103f290611013565b801561043f5780601f106104145761010080835404028352916020019161043f565b820191906000526020600020905b81548152906001019060200180831161042257829003601f168201915b5050505050815260200160038201805461045890611013565b80601f016020809104026020016040519081016040528092919081815260200182805461048490611013565b80156104d15780601f106104a6576101008083540402835291602001916104d1565b820191906000526020600020905b8154815290600101906020018083116104b457829003601f168201915b505050505081526020016004820180546104ea90611013565b80601f016020809104026020016040519081016040528092919081815260200182805461051690611013565b80156105635780601f1061053857610100808354040283529160200191610563565b820191906000526020600020905b81548152906001019060200180831161054657829003601f168201915b50505091835250506005820154602082015260068201546001600160a01b03166040820152600782015460608201526008820154608082015260099091015460ff16151560a09091015292915050565b60008181526002602052604081206009015460ff166105e5576040516302f70f1d60e01b815260040160405180910390fd5b506000908152600260205260409020600601546001600160a01b031690565b60006001600160a01b03821661062d5760405163e6c4247b60e01b815260040160405180910390fd5b8260000361064e57604051635cb045db60e01b815260040160405180910390fd5b891580610659575087155b80610662575085155b8061066b575083155b1561068957604051635cb045db60e01b815260040160405180910390fd5b60008b8b8b8b8b8b6040516020016106a69695949392919061104d565b60408051601f19818403018152918152815160209283012060008181526003909352912054909150156106ec576040516362e5131f60e01b815260040160405180910390fd5b6001805492508060006106ff828661107d565b925050819055506040518061014001604052808381526020018d8d8080601f016020809104026020016040519081016040528093929190818152602001838380828437600092019190915250505090825250604080516020601f8e018190048102820181019092528c815291810191908d908d9081908401838280828437600092019190915250505090825250604080516020601f8c018190048102820181019092528a815291810191908b908b9081908401838280828437600092019190915250505090825250604080516020601f8a0181900481028201810190925288815291810191908990899081908401838280828437600092018290525093855250505060208083018890526001600160a01b03871660408085019190915242606085018190526080850152600160a09094018490528683526002825290912083518155908301519091820190610854908261110a565b5060408201516002820190610869908261110a565b506060820151600382019061087e908261110a565b5060808201516004820190610893908261110a565b5060a0820151816005015560c08201518160060160006101000a8154816001600160a01b0302191690836001600160a01b0316021790555060e0820151816007015561010082015181600801556101208201518160090160006101000a81548160ff021916908315150217905550905050816003600083815260200190815260200160002081905550826001600160a01b0316827fccd9eacc2951faf606f4990aac2ca22a8dc259bdf2883713b2b85a46e8430a1e8e8e8e8e8e8e604051610960969594939291906111f3565b60405180910390a3509a9950505050505050505050565b6000546001600160a01b031633146109a2576040516315b3086760e11b815260040160405180910390fd5b60008381526002602052604090206009015460ff166109d4576040516302f70f1d60e01b815260040160405180910390fd5b6000838152600260205260409020600601546001600160a01b03838116911614610a1157604051639a517dab60e01b815260040160405180910390fd5b610263838383610bdc565b600084815260026020526040902060090154849060ff16610a50576040516302f70f1d60e01b815260040160405180910390fd5b6000818152600260205260409020600601546001600160a01b03163314610a8a57604051639a517dab60e01b815260040160405180910390fd5b821580610a95575081155b15610ab357604051635cb045db60e01b815260040160405180910390fd5b600085815260026020526040902060048101610ad085878361123c565b506005810183905542600882015560405186907fc7d6594ab03628ef3f6852d4225a8d2b1461544207142d9c0fba9747a789ade590610b14908890889088906112fd565b60405180910390a2505050505050565b336001600160a01b037f00000000000000000000000000000000000000000000000000000000000000001614610b6d57604051637bfa4b9f60e01b815260040160405180910390fd5b6001600160a01b038116610b945760405163e6c4247b60e01b815260040160405180910390fd5b600080546001600160a01b0319166001600160a01b038316908117825560405190917f716a54d4b1df003ebb0abb9ff5994322db3dfbe9a0eb750d9428878f81e3fb8e91a250565b60008381526002602052604090206009015460ff16610c0e576040516302f70f1d60e01b815260040160405180910390fd5b6001600160a01b0381161580610c355750816001600160a01b0316816001600160a01b0316145b15610c535760405163e6c4247b60e01b815260040160405180910390fd5b6000838152600260205260408082206006810180546001600160a01b0319166001600160a01b03868116918217909255426008840155925191939086169187917fa5c64c8204a6a698b47e944c0c3e6d9699f44cf150c89378d697fbf682d5b6e491a450505050565b80356001600160a01b0381168114610cd357600080fd5b919050565b60008060408385031215610ceb57600080fd5b82359150610cfb60208401610cbc565b90509250929050565b600060208284031215610d1657600080fd5b5035919050565b6000815180845260005b81811015610d4357602081850181015186830182015201610d27565b506000602082860101526020601f19601f83011685010191505092915050565b602081528151602082015260006020830151610140806040850152610d8c610160850183610d1d565b91506040850151601f1980868503016060870152610daa8483610d1d565b93506060870151915080868503016080870152610dc78483610d1d565b935060808701519150808685030160a087015250610de58382610d1d565b92505060a085015160c085015260c0850151610e0c60e08601826001600160a01b03169052565b5060e085015161010085810191909152850151610120808601919091529094015115159390920192909252919050565b60008083601f840112610e4e57600080fd5b50813567ffffffffffffffff811115610e6657600080fd5b602083019150836020828501011115610e7e57600080fd5b9250929050565b60008060008060008060008060008060c08b8d031215610ea457600080fd5b8a3567ffffffffffffffff80821115610ebc57600080fd5b610ec88e838f01610e3c565b909c509a5060208d0135915080821115610ee157600080fd5b610eed8e838f01610e3c565b909a50985060408d0135915080821115610f0657600080fd5b610f128e838f01610e3c565b909850965060608d0135915080821115610f2b57600080fd5b50610f388d828e01610e3c565b90955093505060808b01359150610f5160a08c01610cbc565b90509295989b9194979a5092959850565b600080600060608486031215610f7757600080fd5b83359250610f8760208501610cbc565b9150610f9560408501610cbc565b90509250925092565b60008060008060608587031215610fb457600080fd5b84359350602085013567ffffffffffffffff811115610fd257600080fd5b610fde87828801610e3c565b9598909750949560400135949350505050565b60006020828403121561100357600080fd5b61100c82610cbc565b9392505050565b600181811c9082168061102757607f821691505b60208210810361104757634e487b7160e01b600052602260045260246000fd5b50919050565b85878237600086820160008152858782376000908601908152838582376000930192835250909695505050505050565b8082018082111561109e57634e487b7160e01b600052601160045260246000fd5b92915050565b634e487b7160e01b600052604160045260246000fd5b601f821115610263576000816000526020600020601f850160051c810160208610156110e35750805b601f850160051c820191505b81811015611102578281556001016110ef565b505050505050565b815167ffffffffffffffff811115611124576111246110a4565b611138816111328454611013565b846110ba565b602080601f83116001811461116d57600084156111555750858301515b600019600386901b1c1916600185901b178555611102565b600085815260208120601f198616915b8281101561119c5788860151825594840194600190910190840161117d565b50858210156111ba5787850151600019600388901b60f8161c191681555b5050505050600190811b01905550565b81835281816020850137506000828201602090810191909152601f909101601f19169091010190565b60608152600061120760608301888a6111ca565b828103602084015261121a8187896111ca565b9050828103604084015261122f8185876111ca565b9998505050505050505050565b67ffffffffffffffff831115611254576112546110a4565b611268836112628354611013565b836110ba565b6000601f84116001811461129c57600085156112845750838201355b600019600387901b1c1916600186901b1783556112f6565b600083815260209020601f19861690835b828110156112cd57868501358255602094850194600190920191016112ad565b50868210156112ea5760001960f88860031b161c19848701351681555b505060018560011b0183555b5050505050565b6040815260006113116040830185876111ca565b905082602083015294935050505056fea26469706673582212207532745d027bae23b9ff941e9bf899b29afc619e4da531421f461e25275ef15564736f6c63430008180033",
  "linkReferences": {},
  "deployedLinkReferences": {}
}