{
  "_format": "hh-sol-artifact-1",
  "contractName": "PropertyRegistry",
  "sourceName": "contracts/PropertyRegistry.sol",
  "abi": [
    {
      "inputs": [],
      "stateMutability": "nonpayable",
      "type": "constructor"
    },
    {
      "inputs": [],
      "name": "DuplicateProperty",
      "type": "error"
    },
    {
      "inputs": [],
      "name": "InvalidAddress",
      "type": "error"
    },
    {
      "inputs": [],
      "name": "InvalidData",
      "type": "error"
    },
    {
      "inputs": [],
      "name": "InvalidProperty",
      "type": "error"
    },
    {
      "inputs": [],
      "name": "NotAdmin",
      "type": "error"
    },
    {
      "inputs": [],
      "name": "NotPropertyOwner",
      "type": "error"
    },
    {
      "inputs": [],
      "name": "UnauthorizedTransferContract",
      "type": "error"
    },
    {
      "anonymous": false,
      "inputs": [
        {
          "indexed": true,
          "internalType": "uint256",
          "name": "propertyId",
          "type": "uint256"
        },
        {
          "indexed": true,
          "internalType": "address",
          "name": "fromOwner",
          "type": "address"
        },
        {
          "indexed": true,
          "internalType": "address",
          "name": "toOwner",
          "type": "address"
        }
      ],
      "name": "PropertyOwnershipTransferred",
      "type": "event"
    },
    {
      "anonymous": false,
      "inputs": [
        {
          "indexed": true,
          "internalType": "uint256",
          "name": "propertyId",
          "type": "uint256"
        },
        {
          "indexed": true,
          "internalType": "address",
          "name": "owner",
          "type": "address"
        },
        {
          "indexed": false,
          "internalType": "string",
          "name": "metadata",
          "type": "string"
        },
        {
          "indexed": false,
          "internalType": "string",
          "name": "khasraNumber",
          "type": "string"
        },
        {
          "indexed": false,
          "internalType": "string",
          "name": "surveyNumber",
          "type": "string"
        },
        {
          "indexed": false,
          "internalType": "string",
          "name": "plotNumber",
          "type": "string"
        }
      ],
      "name": "PropertyRegistered",
      "type": "event"
    },
    {
      "anonymous": false,
      "inputs": [
        {
          "indexed": true,
          "internalType": "uint256",
          "name": "propertyId",
          "type": "uint256"
        },
        {
          "indexed": false,
          "internalType": "string",
          "name": "location",
          "type": "string"
        },
        {
          "indexed": false,
          "internalType": "uint256",
          "name": "area",
          "type": "uint256"
        }
      ],
      "name": "PropertyUpdated",
      "type": "event"
    },
    {
      "anonymous": false,
      "inputs": [
        {
          "indexed": true,
          "internalType": "address",
          "name": "transferContract",
          "type": "address"
        }
      ],
      "name": "TransferContractUpdated",
      "type": "event"
    },
    {
      "inputs": [],
      "name": "admin",
      "outputs": [
        {
          "internalType": "address",
          "name": "",
          "type": "address"
        }
      ],
      "stateMutability": "view",
      "type": "function"
    },
    {
      "inputs": [
        {
          "internalType": "uint256",
          "name": "propertyId",
          "type": "uint256"
        }
      ],
      "name": "exists",
      "outputs": [
        {
          "internalType": "bool",
          "name": "",
          "type": "bool"
        }
      ],
      "stateMutability": "view",
      "type": "function"
    },
    {
      "inputs": [
        {
          "internalType": "uint256",
          "name": "propertyId",
          "type": "uint256"
        }
      ],
      "name": "getProperty",
      "outputs": [
        {
          "components": [
            {
              "internalType": "uint256",
              "name": "propertyId",
              "type": "uint256"
            },
            {
              "internalType": "string",
              "name": "metadata",
              "type": "string"
            },
            {
              "internalType": "string",
              "name": "khasraNumber",
              "type": "string"
            },
            {
              "internalType": "string",
              "name": "surveyNumber",
              "type": "string"
            },
            {
              "internalType": "string",
              "name": "plotNumber",
              "type": "string"
            },
            {
              "internalType": "string",
              "name": "location",
              "type": "string"
            },
            {
              "internalType": "uint256",
              "name": "area",
              "type": "uint256"
            },
            {
              "internalType": "address",
              "name": "currentOwner",
              "type": "address"
            },
            {
              "internalType": "uint256",
              "name": "registeredAt",
              "type": "uint256"
            },
            {
              "internalType": "uint256",
              "name": "updatedAt",
              "type": "uint256"
            },
            {
              "internalType": "bool",
              "name": "exists",
              "type": "bool"
            }
          ],
          "internalType": "struct PropertyRegistry.Property",
          "name": "",
          "type": "tuple"
        }
      ],
      "stateMutability": "view",
      "type": "function"
    },
    {
      "inputs": [],
      "name": "nextPropertyId",
      "outputs": [
        {
          "internalType": "uint256",
          "name": "",
          "type": "uint256"
        }
      ],
      "stateMutability": "view",
      "type": "function"
    },
    {
      "inputs": [
        {
          "internalType": "uint256",
          "name": "propertyId",
          "type": "uint256"
        }
      ],
      "name": "ownerOf",
      "outputs": [
        {
          "internalType": "address",
          "name": "",
          "type": "address"
        }
      ],
      "stateMutability": "view",
      "type": "function"
    },
    {
      "inputs": [
        {
          "internalType": "uint256",
          "name": "propertyId",
          "type": "uint256"
        },
        {
          "internalType": "string",
          "name": "metadata",
          "type": "string"
        },
        {
          "internalType": "address",
          "name": "owner",
          "type": "address"
        }
      ],
      "name": "registerProperty",
      "outputs": [
        {
          "internalType": "uint256",
          "name": "registeredPropertyId",
          "type": "uint256"
        }
      ],
      "stateMutability": "nonpayable",
      "type": "function"
    },
    {
      "inputs": [
        {
          "internalType": "string",
          "name": "khasraNumber",
          "type": "string"
        },
        {
          "internalType": "string",
          "name": "surveyNumber",
          "type": "string"
        },
        {
          "internalType": "string",
          "name": "plotNumber",
          "type": "string"
        },
        {
          "internalType": "string",
          "name": "location",
          "type": "string"
        },
        {
          "internalType": "uint256",
          "name": "area",
          "type": "uint256"
        },
        {
          "internalType": "address",
          "name": "owner",
          "type": "address"
        }
      ],
      "name": "registerProperty",
      "outputs": [
        {
          "internalType": "uint256",
          "name": "propertyId",
          "type": "uint256"
        }
      ],
      "stateMutability": "nonpayable",
      "type": "function"
    },
    {
      "inputs": [
        {
          "internalType": "address",
          "name": "transferContractAddress",
          "type": "address"
        }
      ],
      "name": "setTransferContract",
      "outputs": [],
      "stateMutability": "nonpayable",
      "type": "function"
    },
    {
      "inputs": [],
      "name": "transferContract",
      "outputs": [
        {
          "internalType": "address",
          "name": "",
          "type": "address"
        }
      ],
      "stateMutability": "view",
      "type": "function"
    },
    {
      "inputs": [
        {
          "internalType": "uint256",
          "name": "propertyId",
          "type": "uint256"
        },
        {
          "internalType": "address",
          "name": "newOwner",
          "type": "address"
        }
      ],
      "name": "transferOwnership",
      "outputs": [],
      "stateMutability": "nonpayable",
      "type": "function"
    },
    {
      "inputs": [
        {
          "internalType": "uint256",
          "name": "propertyId",
          "type": "uint256"
        },
        {
          "internalType": "address",
          "name": "expectedCurrentOwner",
          "type": "address"
        },
        {
          "internalType": "address",
          "name": "newOwner",
          "type": "address"
        }
      ],
      "name": "transferOwnershipByContract",
      "outputs": [],
      "stateMutability": "nonpayable",
      "type": "function"
    },
    {
      "inputs": [
        {
          "internalType": "uint256",
          "name": "propertyId",
          "type": "uint256"
        },
        {
          "internalType": "string",
          "name": "location",
          "type": "string"
        },
        {
          "internalType": "uint256",
          "name": "area",
          "type": "uint256"
        }
      ],
      "name": "updatePropertyMetadata",
      "outputs": [],
      "stateMutability": "nonpayable",
      "type": "function"
    }
  ],
  "bytecode": "0x60a06040526001805534801561001457600080fd5b503360805260805161177e61003b600039600081816101e20152610e7f015261177e6000f3fe608060405234801561001057600080fd5b50600436106100b45760003560e01c80637bc39341116100715780637bc393411461017e5780638c207aad14610191578063b4db2a01146101a4578063dd9da9d3146101b7578063e3911c76146101ca578063f851a440146101dd57600080fd5b806329507f73146100b95780632f74da74146100ce57806332665ffb146100f457806339500f34146101145780634f558e791461011d5780636352211e14610153575b600080fd5b6100cc6100c7366004611028565b610204565b005b6100e16100dc36600461109d565b610282565b6040519081526020015b60405180910390f35b6101076101023660046110fb565b6104f4565b6040516100eb919061115a565b6100e160015481565b61014361012b3660046110fb565b6000908152600260205260409020600a015460ff1690565b60405190151581526020016100eb565b6101666101613660046110fb565b6108d8565b6040516001600160a01b0390911681526020016100eb565b600054610166906001600160a01b031681565b6100e161019f36600461124e565b610929565b6100cc6101b236600461132b565b610cc7565b6100cc6101c5366004611367565b610d6c565b6100cc6101d83660046113ba565b610e74565b6101667f000000000000000000000000000000000000000000000000000000000000000081565b6000828152600260205260409020600a0154829060ff16610238576040516302f70f1d60e01b815260040160405180910390fd5b6000818152600260205260409020600701546001600160a01b0316331461027257604051639a517dab60e01b815260040160405180910390fd5b61027d833384610f2c565b505050565b60006001600160a01b0382166102ab5760405163e6c4247b60e01b815260040160405180910390fd5b846000036102d1575060018054908060006102c682856113dc565b9091555061031f9050565b6000858152600260205260409020600a015460ff1615610304576040516362e5131f60e01b815260040160405180910390fd5b849050600154851061031f5761031b8560016113dc565b6001555b60405180610160016040528082815260200185858080601f016020809104026020016040519081016040528093929190818152602001838380828437600092018290525093855250506040805160208181018352848252808601919091528151808201835284815282860152815180820183528481526060860152815180820183528481526080860152600160a086018190526001600160a01b03891660c08701524260e08701819052610100870152610120909501859052868452600281529220845181559184015191928301916103f99150826114a3565b506040820151600282019061040e90826114a3565b506060820151600382019061042390826114a3565b506080820151600482019061043890826114a3565b5060a0820151600582019061044d90826114a3565b5060c0820151600682015560e08201516007820180546001600160a01b0319166001600160a01b039283161790556101008301516008830155610120830151600983015561014090920151600a909101805460ff19169115159190911790556040519083169082907f89b8abf8448a723120191240550eaa60794f372e3cfa10f8f231da0ad0d8e468906104e4908890889061158c565b60405180910390a3949350505050565b61055c6040518061016001604052806000815260200160608152602001606081526020016060815260200160608152602001606081526020016000815260200160006001600160a01b0316815260200160008152602001600081526020016000151581525090565b6000828152600260205260409020600a015460ff1661058e576040516302f70f1d60e01b815260040160405180910390fd5b6002600083815260200190815260200160002060405180610160016040529081600082015481526020016001820180546105c790611419565b80601f01602080910402602001604051908101604052809291908181526020018280546105f390611419565b80156106405780601f1061061557610100808354040283529160200191610640565b820191906000526020600020905b81548152906001019060200180831161062357829003601f168201915b5050505050815260200160028201805461065990611419565b80601f016020809104026020016040519081016040528092919081815260200182805461068590611419565b80156106d25780601f106106a7576101008083540402835291602001916106d2565b820191906000526020600020905b8154815290600101906020018083116106b557829003601f168201915b505050505081526020016003820180546106eb90611419565b80601f016020809104026020016040519081016040528092919081815260200182805461071790611419565b80156107645780601f1061073957610100808354040283529160200191610764565b820191906000526020600020905b81548152906001019060200180831161074757829003601f168201915b5050505050815260200160048201805461077d90611419565b80601f01602080910402602001604051908101604052809291908181526020018280546107a990611419565b80156107f65780601f106107cb576101008083540402835291602001916107f6565b820191906000526020600020905b8154815290600101906020018083116107d957829003601f168201915b5050505050815260200160058201805461080f90611419565b80601f016020809104026020016040519081016040528092919081815260200182805461083b90611419565b80156108885780601f1061085d57610100808354040283529160200191610888565b820191906000526020600020905b81548152906001019060200180831161086b57829003601f168201915b50505091835250506006820154602082015260078201546001600160a01b031660408201526008820154606082015260098201546080820152600a9091015460ff16151560a09091015292915050565b6000818152600260205260408120600a015460ff1661090a576040516302f70f1d60e01b815260040160405180910390fd5b506000908152600260205260409020600701546001600160a01b031690565b60006001600160a01b0382166109525760405163e6c4247b60e01b815260040160405180910390fd5b8260000361097357604051635cb045db60e01b815260040160405180910390fd5b89158061097e575087155b80610987575085155b80610990575083155b156109ae57604051635cb045db60e01b815260040160405180910390fd5b60008b8b8b8b8b8b6040516020016109cb969594939291906115dc565b60408051601f1981840301815291815281516020928301206000818152600390935291205490915015610a11576040516362e5131f60e01b815260040160405180910390fd5b600180549250806000610a2482866113dc565b925050819055506040518061016001604052808381526020016040518060200160405280600081525081526020018d8d8080601f016020809104026020016040519081016040528093929190818152602001838380828437600092019190915250505090825250604080516020601f8e018190048102820181019092528c815291810191908d908d9081908401838280828437600092019190915250505090825250604080516020601f8c018190048102820181019092528a815291810191908b908b9081908401838280828437600092019190915250505090825250604080516020601f8a0181900481028201810190925288815291810191908990899081908401838280828437600092018290525093855250505060208083018890526001600160a01b03871660408085019190915242606085018190526080850152600160a09094018490528683526002825290912083518155908301519091820190610b8e90826114a3565b5060408201516002820190610ba390826114a3565b5060608201516003820190610bb890826114a3565b5060808201516004820190610bcd90826114a3565b5060a08201516005820190610be290826114a3565b5060c0820151816006015560e08201518160070160006101000a8154816001600160a01b0302191690836001600160a01b031602179055506101008201518160080155610120820151816009015561014082015181600a0160006101000a81548160ff021916908315150217905550905050816003600083815260200190815260200160002081905550826001600160a01b0316827f89b8abf8448a723120191240550eaa60794f372e3cfa10f8f231da0ad0d8e4688e8e8e8e8e8e604051610cb09695949392919061160c565b60405180910390a3509a9950505050505050505050565b6000546001600160a01b03163314610cf2576040516315b3086760e11b815260040160405180910390fd5b6000838152600260205260409020600a015460ff16610d24576040516302f70f1d60e01b815260040160405180910390fd5b6000838152600260205260409020600701546001600160a01b03838116911614610d6157604051639a517dab60e01b815260040160405180910390fd5b61027d838383610f2c565b6000848152600260205260409020600a0154849060ff16610da0576040516302f70f1d60e01b815260040160405180910390fd5b6000818152600260205260409020600701546001600160a01b03163314610dda57604051639a517dab60e01b815260040160405180910390fd5b821580610de5575081155b15610e0357604051635cb045db60e01b815260040160405180910390fd5b600085815260026020526040902060058101610e20858783611663565b506006810183905542600982015560405186907fc7d6594ab03628ef3f6852d4225a8d2b1461544207142d9c0fba9747a789ade590610e6490889088908890611724565b60405180910390a2505050505050565b336001600160a01b037f00000000000000000000000000000000000000000000000000000000000000001614610ebd57604051637bfa4b9f60e01b815260040160405180910390fd5b6001600160a01b038116610ee45760405163e6c4247b60e01b815260040160405180910390fd5b600080546001600160a01b0319166001600160a01b038316908117825560405190917f716a54d4b1df003ebb0abb9ff5994322db3dfbe9a0eb750d9428878f81e3fb8e91a250565b6000838152600260205260409020600a015460ff16610f5e576040516302f70f1d60e01b815260040160405180910390fd5b6001600160a01b0381161580610f855750816001600160a01b0316816001600160a01b0316145b15610fa35760405163e6c4247b60e01b815260040160405180910390fd5b6000838152600260205260408082206007810180546001600160a01b0319166001600160a01b03868116918217909255426009840155925191939086169187917fa5c64c8204a6a698b47e944c0c3e6d9699f44cf150c89378d697fbf682d5b6e491a450505050565b80356001600160a01b038116811461102357600080fd5b919050565b6000806040838503121561103b57600080fd5b8235915061104b6020840161100c565b90509250929050565b60008083601f84011261106657600080fd5b50813567ffffffffffffffff81111561107e57600080fd5b60208301915083602082850101111561109657600080fd5b9250929050565b600080600080606085870312156110b357600080fd5b84359350602085013567ffffffffffffffff8111156110d157600080fd5b6110dd87828801611054565b90945092506110f090506040860161100c565b905092959194509250565b60006020828403121561110d57600080fd5b5035919050565b6000815180845260005b8181101561113a5760208185018101518683018201520161111e565b506000602082860101526020601f19601f83011685010191505092915050565b602081528151602082015260006020830151610160806040850152611183610180850183611114565b91506040850151601f19808685030160608701526111a18483611114565b935060608701519150808685030160808701526111be8483611114565b935060808701519150808685030160a08701526111db8483611114565b935060a08701519150808685030160c0870152506111f98382611114565b92505060c085015160e085015260e0850151610100611222818701836001600160a01b03169052565b860151610120868101919091528601516101408087019190915290950151151593019290925250919050565b60008060008060008060008060008060c08b8d03121561126d57600080fd5b8a3567ffffffffffffffff8082111561128557600080fd5b6112918e838f01611054565b909c509a5060208d01359150808211156112aa57600080fd5b6112b68e838f01611054565b909a50985060408d01359150808211156112cf57600080fd5b6112db8e838f01611054565b909850965060608d01359150808211156112f457600080fd5b506113018d828e01611054565b90955093505060808b0135915061131a60a08c0161100c565b90509295989b9194979a5092959850565b60008060006060848603121561134057600080fd5b833592506113506020850161100c565b915061135e6040850161100c565b90509250925092565b6000806000806060858703121561137d57600080fd5b84359350602085013567ffffffffffffffff81111561139b57600080fd5b6113a787828801611054565b9598909750949560400135949350505050565b6000602082840312156113cc57600080fd5b6113d58261100c565b9392505050565b808201808211156113fd57634e487b7160e01b600052601160045260246000fd5b92915050565b634e487b7160e01b600052604160045260246000fd5b600181811c9082168061142d57607f821691505b60208210810361144d57634e487b7160e01b600052602260045260246000fd5b50919050565b601f82111561027d576000816000526020600020601f850160051c8101602086101561147c5750805b601f850160051c820191505b8181101561149b57828155600101611488565b505050505050565b815167ffffffffffffffff8111156114bd576114bd611403565b6114d1816114cb8454611419565b84611453565b602080601f83116001811461150657600084156114ee5750858301515b600019600386901b1c1916600185901b17855561149b565b600085815260208120601f198616915b8281101561153557888601518255948401946001909101908401611516565b50858210156115535787850151600019600388901b60f8161c191681555b5050505050600190811b01905550565b81835281816020850137506000828201602090810191909152601f909101601f19169091010190565b6080815260006115a0608083018486611563565b82810380602085015260008252602081016040850152600060208301526040810160608501525060006040820152606081019150509392505050565b85878237600086820160008152858782376000908601908152838582376000930192835250909695505050505050565b608081526000608082015260a06020820152600061162e60a08301888a611563565b8281036040840152611641818789611563565b90508281036060840152611656818587611563565b9998505050505050505050565b67ffffffffffffffff83111561167b5761167b611403565b61168f836116898354611419565b83611453565b6000601f8411600181146116c357600085156116ab5750838201355b600019600387901b1c1916600186901b17835561171d565b600083815260209020601f19861690835b828110156116f457868501358255602094850194600190920191016116d4565b50868210156117115760001960f88860031b161c19848701351681555b505060018560011b0183555b5050505050565b604081526000611738604083018587611563565b905082602083015294935050505056fea2646970667358221220d513746c43fc3836f0e6c8ff36080a09272b0febc048e701fa0f560dfd8aff1964736f6c63430008180033",
  "linkReferences": {},
  "deployedLinkReferences": {}
}