{
  "_format": "hh-sol-artifact-1",
  "contractName": "OwnershipTransfer",
  "sourceName": "contracts/OwnershipTransfer.sol",
  "abi": [
    {
      "inputs": [
        {
          "internalType": "address",
          "name": "registryAddress",
          "type": "address"
        }
      ],
      "stateMutability": "nonpayable",
      "type": "constructor"
    },
    {
      "inputs": [],
      "name": "AlreadyApproved",
      "type": "error"
    },
    {
      "inputs": [],
      "name": "AlreadyExecuted",
      "type": "error"
    },
    {
      "inputs": [],
      "name": "InvalidAddress",
      "type": "error"
    },
    {
      "inputs": [],
      "name": "InvalidRequest",
      "type": "error"
    },
    {
      "inputs": [],
      "name": "NotApproved",
      "type": "error"
    },
    {
      "inputs": [],
      "name": "NotIntendedRecipient",
      "type": "error"
    },
    {
      "inputs": [],
      "name": "NotRequester",
      "type": "error"
    },
    {
      "anonymous": false,
      "inputs": [
        {
          "indexed": true,
          "internalType": "uint256",
          "name": "requestId",
          "type": "uint256"
        },
        {
          "indexed": true,
          "internalType": "address",
          "name": "approver",
          "type": "address"
        }
      ],
      "name": "TransferApproved",
      "type": "event"
    },
    {
      "anonymous": false,
      "inputs": [
        {
          "indexed": true,
          "internalType": "uint256",
          "name": "requestId",
          "type": "uint256"
        }
      ],
      "name": "TransferCancelled",
      "type": "event"
    },
    {
      "anonymous": false,
      "inputs": [
        {
          "indexed": true,
          "internalType": "uint256",
          "name": "requestId",
          "type": "uint256"
        },
        {
          "indexed": true,
          "internalType": "uint256",
          "name": "propertyId",
          "type": "uint256"
        },
        {
          "indexed": true,
          "internalType": "address",
          "name": "toOwner",
          "type": "address"
        }
      ],
      "name": "TransferExecuted",
      "type": "event"
    },
    {
      "anonymous": false,
      "inputs": [
        {
          "indexed": true,
          "internalType": "uint256",
          "name": "requestId",
          "type": "uint256"
        },
        {
          "indexed": true,
          "internalType": "uint256",
          "name": "propertyId",
          "type": "uint256"
        },
        {
          "indexed": true,
          "internalType": "address",
          "name": "fromOwner",
          "type": "address"
        },
        {
          "indexed": false,
          "internalType": "address",
          "name": "toOwner",
          "type": "address"
        }
      ],
      "name": "TransferRequested",
      "type": "event"
    },
    {
      "inputs": [
        {
          "internalType": "uint256",
          "name": "requestId",
          "type": "uint256"
        }
      ],
      "name": "approveTransfer",
      "outputs": [],
      "stateMutability": "nonpayable",
      "type": "function"
    },
    {
      "inputs": [
        {
          "internalType": "uint256",
          "name": "requestId",
          "type": "uint256"
        }
      ],
      "name": "cancelTransfer",
      "outputs": [],
      "stateMutability": "nonpayable",
      "type": "function"
    },
    {
      "inputs": [
        {
          "internalType": "uint256",
          "name": "requestId",
          "type": "uint256"
        }
      ],
      "name": "executeTransfer",
      "outputs": [],
      "stateMutability": "nonpayable",
      "type": "function"
    },
    {
      "inputs": [],
      "name": "nextRequestId",
      "outputs": [
        {
          "internalType": "uint256",
          "name": "",
          "type": "uint256"
        }
      ],
      "stateMutability": "view",
      "type": "function"
    },
    {
      "inputs": [],
      "name": "registry",
      "outputs": [
        {
          "internalType": "contract IPropertyRegistry",
          "name": "",
          "type": "address"
        }
      ],
      "stateMutability": "view",
      "type": "function"
    },
    {
      "inputs": [
        {
          "internalType": "uint256",
          "name": "propertyId",
          "type": "uint256"
        },
        {
          "internalType": "address",
          "name": "toOwner",
          "type": "address"
        }
      ],
      "name": "requestTransfer",
      "outputs": [
        {
          "internalType": "uint256",
          "name": "requestId",
          "type": "uint256"
        }
      ],
      "stateMutability": "nonpayable",
      "type": "function"
    },
    {
      "inputs": [
        {
          "internalType": "uint256",
          "name": "",
          "type": "uint256"
        }
      ],
      "name": "transferRequests",
      "outputs": [
        {
          "internalType": "uint256",
          "name": "requestId",
          "type": "uint256"
        },
        {
          "internalType": "uint256",
          "name": "propertyId",
          "type": "uint256"
        },
        {
          "internalType": "address",
          "name": "fromOwner",
          "type": "address"
        },
        {
          "internalType": "address",
          "name": "toOwner",
          "type": "address"
        },
        {
          "internalType": "bool",
          "name": "approved",
          "type": "bool"
        },
        {
          "internalType": "bool",
          "name": "executed",
          "type": "bool"
        },
        {
          "internalType": "uint256",
          "name": "createdAt",
          "type": "uint256"
        }
      ],
      "stateMutability": "view",
      "type": "function"
    }
  ],
  "bytecode": "0x60a0604052600160005534801561001557600080fd5b5060405161080c38038061080c8339810160408190526100349161006c565b6001600160a01b03811661005b5760405163e6c4247b60e01b815260040160405180910390fd5b6001600160a01b031660805261009c565b60006020828403121561007e57600080fd5b81516001600160a01b038116811461009557600080fd5b9392505050565b60805161074e6100be6000396000818161016f01526105e9015261074e6000f3fe608060405234801561001057600080fd5b506004361061007d5760003560e01c80636a84a9851161005b5780636a84a985146101615780637b1039991461016a578063cacca4a0146101a9578063f05d5752146101bc57600080fd5b806303486c4014610082578063403442321461012b57806359caecb51461014c575b600080fd5b6100e161009036600461069c565b60016020819052600091825260409091208054918101546002820154600383015460049093015491926001600160a01b03918216929181169160ff600160a01b8304811692600160a81b9004169087565b6040805197885260208801969096526001600160a01b039485169587019590955292909116606085015215156080840152151560a083015260c082015260e0015b60405180910390f35b61013e6101393660046106b5565b6101cf565b604051908152602001610122565b61015f61015a36600461069c565b61032c565b005b61013e60005481565b6101917f000000000000000000000000000000000000000000000000000000000000000081565b6040516001600160a01b039091168152602001610122565b61015f6101b736600461069c565b610426565b61015f6101ca36600461069c565b610523565b60006001600160a01b03821615806101ef57506001600160a01b03821633145b1561020d5760405163e6c4247b60e01b815260040160405180910390fd5b5060008054906001908061022183856106f1565b90915550506040805160e0810182528281526020808201868152338385018181526001600160a01b038881166060870181815260006080890181815260a08a018281524260c08c019081528d84526001808c52938d90209b518c559851928b0192909255945160028a0180549186166001600160a01b03199092169190911790559051600389018054955192511515600160a81b0260ff60a81b19931515600160a01b026001600160a81b03199097169290951691909117949094171691909117909155915160049094019390935592519283529091859184917f7743c2d48f92ed4ce826baa18955c4fed009cc48b2cc2979d4b19ae940c7e146910160405180910390a492915050565b6000818152600160205260408120805490910361035c576040516341abc80160e01b815260040160405180910390fd5b6003810154600160a81b900460ff161561038957604051630dc1019760e01b815260040160405180910390fd5b60028101546001600160a01b031633146103b6576040516371ced2cf60e11b815260040160405180910390fd5b60008281526001602081905260408083208381559182018390556002820180546001600160a01b03191690556003820180546001600160b01b031916905560049091018290555183917f80325e888c1c82b732ed61a3aaa950ae32a233290f74a648d1a333966645034591a25050565b60008181526001602052604081208054909103610456576040516341abc80160e01b815260040160405180910390fd5b6003810154600160a81b900460ff161561048357604051630dc1019760e01b815260040160405180910390fd5b6003810154600160a01b900460ff16156104b05760405163080fc0bd60e11b815260040160405180910390fd5b60038101546001600160a01b031633146104dd5760405163cb7824e960e01b815260040160405180910390fd5b60038101805460ff60a01b1916600160a01b179055604051339083907fa4269914b1afdc8f7e4c3aa6794f0de6e37f00884fb97ea9288a1d68ba7de67b90600090a35050565b60008181526001602052604081208054909103610553576040516341abc80160e01b815260040160405180910390fd5b6003810154600160a81b900460ff161561058057604051630dc1019760e01b815260040160405180910390fd5b6003810154600160a01b900460ff166105ac5760405163c19f17a960e01b815260040160405180910390fd5b60018101546002820154600383015460405163b4db2a0160e01b815260048101939093526001600160a01b039182166024840152811660448301527f0000000000000000000000000000000000000000000000000000000000000000169063b4db2a0190606401600060405180830381600087803b15801561062d57600080fd5b505af1158015610641573d6000803e3d6000fd5b50505050600381018054600160a81b60ff60a81b1982161790915560018201546040516001600160a01b039092169184907f709acca7c7909ce9ce07b5693ca5d8fe4c7966a497a11c0d61d6dfde9bac80a190600090a45050565b6000602082840312156106ae57600080fd5b5035919050565b600080604083850312156106c857600080fd5b8235915060208301356001600160a01b03811681146106e657600080fd5b809150509250929050565b8082018082111561071257634e487b7160e01b600052601160045260246000fd5b9291505056fea2646970667358221220c1dd6340144d94fda6415691b9588caa52863b1cc1d21dc46b5137bbb8c6bfa064736f6c63430008180033",
  "linkReferences": {},
  "deployedLinkReferences": {}
}