{
  "_format": "hh-sol-artifact-1",
  "contractName": "PropertyHistory",
  "sourceName": "contracts/PropertyHistory.sol",
  "abi": [
    {
      "inputs": [],
      "stateMutability": "nonpayable",
      "type": "constructor"
    },
    {
      "inputs": [],
      "name": "InvalidInput",
      "type": "error"
    },
    {
      "inputs": [],
      "name": "InvalidRange",
      "type": "error"
    },
    {
      "inputs": [],
      "name": "InvalidWriter",
      "type": "error"
    },
    {
      "inputs": [],
      "name": "NotAdmin",
      "type": "error"
    },
    {
      "inputs": [],
      "name": "NotAuthorized",
      "type": "error"
    },
    {
      "anonymous": false,
      "inputs": [
        {
          "indexed": true,
          "internalType": "uint256",
          "name": "recordId",
          "type": "uint256"
        },
        {
          "indexed": true,
          "internalType": "uint256",
          "name": "propertyId",
          "type": "uint256"
        },
        {
          "indexed": true,
          "internalType": "address",
          "name": "actor",
          "type": "address"
        },
        {
          "indexed": false,
          "internalType": "string",
          "name": "action",
          "type": "string"
        },
        {
          "indexed": false,
          "internalType": "uint256",
          "name": "timestamp",
          "type": "uint256"
        }
      ],
      "name": "PropertyHistoryRecorded",
      "type": "event"
    },
    {
      "anonymous": false,
      "inputs": [
        {
          "indexed": true,
          "internalType": "address",
          "name": "writer",
          "type": "address"
        },
        {
          "indexed": false,
          "internalType": "bool",
          "name": "authorized",
          "type": "bool"
        }
      ],
      "name": "WriterAuthorizationUpdated",
      "type": "event"
    },
    {
      "inputs": [],
      "name": "admin",
      "outputs": [
        {
          "internalType": "address",
          "name": "",
          "type": "address"
        }
      ],
      "stateMutability": "view",
      "type": "function"
    },
    {
      "inputs": [
        {
          "internalType": "address",
          "name": "",
          "type": "address"
        }
      ],
      "name": "authorizedWriters",
      "outputs": [
        {
          "internalType": "bool",
          "name": "",
          "type": "bool"
        }
      ],
      "stateMutability": "view",
      "type": "function"
    },
    {
      "inputs": [
        {
          "internalType": "uint256",
          "name": "propertyId",
          "type": "uint256"
        }
      ],
      "name": "getFullHistory",
      "outputs": [
        {
          "components": [
            {
              "internalType": "uint256",
              "name": "recordId",
              "type": "uint256"
            },
            {
              "internalType": "uint256",
              "name": "propertyId",
              "type": "uint256"
            },
            {
              "internalType": "address",
              "name": "actor",
              "type": "address"
            },
            {
              "internalType": "string",
              "name": "action",
              "type": "string"
            },
            {
              "internalType": "string",
              "name": "details",
              "type": "string"
            },
            {
              "internalType": "uint256",
              "name": "timestamp",
              "type": "uint256"
            }
          ],
          "internalType": "struct PropertyHistory.HistoryRecord[]",
          "name": "",
          "type": "tuple[]"
        }
      ],
      "stateMutability": "view",
      "type": "function"
    },
    {
      "inputs": [
        {
          "internalType": "uint256",
          "name": "propertyId",
          "type": "uint256"
        },
        {
          "internalType": "uint256",
          "name": "offset",
          "type": "uint256"
        },
        {
          "internalType": "uint256",
          "name": "limit",
          "type": "uint256"
        }
      ],
      "name": "getHistoryByRange",
      "outputs": [
        {
          "components": [
            {
              "internalType": "uint256",
              "name": "recordId",
              "type": "uint256"
            },
            {
              "internalType": "uint256",
              "name": "propertyId",
              "type": "uint256"
            },
            {
              "internalType": "address",
              "name": "actor",
              "type": "address"
            },
            {
              "internalType": "string",
              "name": "action",
              "type": "string"
            },
            {
              "internalType": "string",
              "name": "details",
              "type": "string"
            },
            {
              "internalType": "uint256",
              "name": "timestamp",
              "type": "uint256"
            }
          ],
          "internalType": "struct PropertyHistory.HistoryRecord[]",
          "name": "",
          "type": "tuple[]"
        }
      ],
      "stateMutability": "view",
      "type": "function"
    },
    {
      "inputs": [
        {
          "internalType": "uint256",
          "name": "propertyId",
          "type": "uint256"
        }
      ],
      "name": "getHistoryCount",
      "outputs": [
        {
          "internalType": "uint256",
          "name": "",
          "type": "uint256"
        }
      ],
      "stateMutability": "view",
      "type": "function"
    },
    {
      "inputs": [],
      "name": "nextRecordId",
      "outputs": [
        {
          "internalType": "uint256",
          "name": "",
          "type": "uint256"
        }
      ],
      "stateMutability": "view",
      "type": "function"
    },
    {
      "inputs": [
        {
          "internalType": "uint256",
          "name": "propertyId",
          "type": "uint256"
        },
        {
          "internalType": "address",
          "name": "actor",
          "type": "address"
        },
        {
          "internalType": "string",
          "name": "action",
          "type": "string"
        },
        {
          "internalType": "string",
          "name": "details",
          "type": "string"
        }
      ],
      "name": "recordAction",
      "outputs": [
        {
          "internalType": "uint256",
          "name": "recordId",
          "type": "uint256"
        }
      ],
      "stateMutability": "nonpayable",
      "type": "function"
    },
    {
      "inputs": [
        {
          "internalType": "address",
          "name": "writer",
          "type": "address"
        },
        {
          "internalType": "bool",
          "name": "allowed",
          "type": "bool"
        }
      ],
      "name": "setAuthorizedWriter",
      "outputs": [],
      "stateMutability": "nonpayable",
      "type": "function"
    }
  ],
  "bytecode": "0x60a0604052600160005534801561001557600080fd5b50336080819052600081815260016020818152604092839020805460ff19168317905591519081527fa356cd9fa06f93ff3064cd1edfea27d8e05c272871977892da10bbcedf2dde2e910160405180910390a2608051610e2b61008a6000396000818161015c01526106a40152610e2b6000f3fe608060405234801561001057600080fd5b50600436106100885760003560e01c8063842dd3ea1161005b578063842dd3ea1461011b578063afa8880e1461012e578063dbde207d1461014e578063f851a4401461015757600080fd5b806342239cbe1461008d5780634c5ba4b1146100b3578063526241a8146100d3578063542a086c14610106575b600080fd5b6100a061009b3660046109d7565b610196565b6040519081526020015b60405180910390f35b6100c66100c1366004610a61565b6103c0565b6040516100aa9190610ad3565b6100f66100e1366004610b93565b60016020526000908152604090205460ff1681565b60405190151581526020016100aa565b610119610114366004610bae565b610699565b005b6100c6610129366004610bea565b610768565b6100a061013c366004610bea565b60009081526002602052604090205490565b6100a060005481565b61017e7f000000000000000000000000000000000000000000000000000000000000000081565b6040516001600160a01b0390911681526020016100aa565b3360009081526001602052604081205460ff166101c65760405163ea8e4eb560e01b815260040160405180910390fd5b8615806101da57506001600160a01b038616155b156101f85760405163b4fa3fb360e01b815260040160405180910390fd5b600084900361021a5760405163b4fa3fb360e01b815260040160405180910390fd5b5060008054906001908061022e8385610c19565b9250508190555060006040518060c00160405280838152602001898152602001886001600160a01b0316815260200187878080601f016020809104026020016040519081016040528093929190818152602001838380828437600092019190915250505090825250604080516020601f8801819004810282018101909252868152918101919087908790819084018382808284376000920182905250938552505042602093840152508a81526002808352604080832080546001808201835591855293859020865160069095020193845593850151938301939093559183015191810180546001600160a01b0319166001600160a01b03909316929092179091556060820151919250829160038201906103489082610cd3565b506080820151600482019061035d9082610cd3565b5060a082015181600501555050866001600160a01b031688837f6d8ecefca2209845357ac89dcbd5c9f3de185170814df77fa2ba0e07ee40dde589898660a001516040516103ad93929190610d93565b60405180910390a4509695505050505050565b600083815260026020526040902080546060919080851061041657604080516000808252602082019092529061040c565b6103f9610933565b8152602001906001900390816103f15790505b5092505050610692565b836000036104375760405163561ce9bb60e01b815260040160405180910390fd5b60006104438587610c19565b9050818111156104505750805b600061045c8783610dcc565b905060008167ffffffffffffffff81111561047957610479610c32565b6040519080825280602002602001820160405280156104b257816020015b61049f610933565b8152602001906001900390816104975790505b50905060005b8281101561068a57856104cb828b610c19565b815481106104db576104db610ddf565b90600052602060002090600602016040518060c001604052908160008201548152602001600182015481526020016002820160009054906101000a90046001600160a01b03166001600160a01b03166001600160a01b0316815260200160038201805461054790610c48565b80601f016020809104026020016040519081016040528092919081815260200182805461057390610c48565b80156105c05780601f10610595576101008083540402835291602001916105c0565b820191906000526020600020905b8154815290600101906020018083116105a357829003601f168201915b505050505081526020016004820180546105d990610c48565b80601f016020809104026020016040519081016040528092919081815260200182805461060590610c48565b80156106525780601f1061062757610100808354040283529160200191610652565b820191906000526020600020905b81548152906001019060200180831161063557829003601f168201915b5050505050815260200160058201548152505082828151811061067757610677610ddf565b60209081029190910101526001016104b8565b509450505050505b9392505050565b336001600160a01b037f000000000000000000000000000000000000000000000000000000000000000016146106e257604051637bfa4b9f60e01b815260040160405180910390fd5b6001600160a01b0382166107095760405163050e56fb60e31b815260040160405180910390fd5b6001600160a01b038216600081815260016020908152604091829020805460ff191685151590811790915591519182527fa356cd9fa06f93ff3064cd1edfea27d8e05c272871977892da10bbcedf2dde2e910160405180910390a25050565b606060026000838152602001908152602001600020805480602002602001604051908101604052809291908181526020016000905b828210156109285760008481526020908190206040805160c081018252600686029092018054835260018101549383019390935260028301546001600160a01b0316908201526003820180549192916060840191906107fb90610c48565b80601f016020809104026020016040519081016040528092919081815260200182805461082790610c48565b80156108745780601f1061084957610100808354040283529160200191610874565b820191906000526020600020905b81548152906001019060200180831161085757829003601f168201915b5050505050815260200160048201805461088d90610c48565b80601f01602080910402602001604051908101604052809291908181526020018280546108b990610c48565b80156109065780601f106108db57610100808354040283529160200191610906565b820191906000526020600020905b8154815290600101906020018083116108e957829003601f168201915b505050505081526020016005820154815250508152602001906001019061079d565b505050509050919050565b6040518060c00160405280600081526020016000815260200160006001600160a01b031681526020016060815260200160608152602001600081525090565b80356001600160a01b038116811461098957600080fd5b919050565b60008083601f8401126109a057600080fd5b50813567ffffffffffffffff8111156109b857600080fd5b6020830191508360208285010111156109d057600080fd5b9250929050565b600080600080600080608087890312156109f057600080fd5b86359550610a0060208801610972565b9450604087013567ffffffffffffffff80821115610a1d57600080fd5b610a298a838b0161098e565b90965094506060890135915080821115610a4257600080fd5b50610a4f89828a0161098e565b979a9699509497509295939492505050565b600080600060608486031215610a7657600080fd5b505081359360208301359350604090920135919050565b6000815180845260005b81811015610ab357602081850181015186830182015201610a97565b506000602082860101526020601f19601f83011685010191505092915050565b600060208083018184528085518083526040925060408601915060408160051b87010184880160005b83811015610b8557888303603f190185528151805184528781015188850152868101516001600160a01b03168785015260608082015160c08287018190529190610b4883880182610a8d565b9250505060808083015186830382880152610b638382610a8d565b60a0948501519790940196909652505094870194925090860190600101610afc565b509098975050505050505050565b600060208284031215610ba557600080fd5b61069282610972565b60008060408385031215610bc157600080fd5b610bca83610972565b915060208301358015158114610bdf57600080fd5b809150509250929050565b600060208284031215610bfc57600080fd5b5035919050565b634e487b7160e01b600052601160045260246000fd5b80820180821115610c2c57610c2c610c03565b92915050565b634e487b7160e01b600052604160045260246000fd5b600181811c90821680610c5c57607f821691505b602082108103610c7c57634e487b7160e01b600052602260045260246000fd5b50919050565b601f821115610cce576000816000526020600020601f850160051c81016020861015610cab5750805b601f850160051c820191505b81811015610cca57828155600101610cb7565b5050505b505050565b815167ffffffffffffffff811115610ced57610ced610c32565b610d0181610cfb8454610c48565b84610c82565b602080601f831160018114610d365760008415610d1e5750858301515b600019600386901b1c1916600185901b178555610cca565b600085815260208120601f198616915b82811015610d6557888601518255948401946001909101908401610d46565b5085821015610d835787850151600019600388901b60f8161c191681555b5050505050600190811b01905550565b604081528260408201528284606083013760006060848301015260006060601f19601f8601168301019050826020830152949350505050565b81810381811115610c2c57610c2c610c03565b634e487b7160e01b600052603260045260246000fdfea26469706673582212203783c0bc90a5660c20e7d7859e7aae2c135ee1e346d4e245b5c865f4e52da28a64736f6c63430008180033",
  "linkReferences": {},
  "deployedLinkReferences": {}
}