{
  "_format": "hh-sol-artifact-1",
  "contractName": "PropertyHistory",
  "sourceName": "contracts/PropertyHistory.sol",
  "abi": [
    {
      "inputs": [],
      "stateMutability": "nonpayable",
      "type": "constructor"
    },
    {
      "inputs": [],
      "name": "InvalidInput",
      "type": "error"
    },
    {
      "inputs": [],
      "name": "InvalidRange",
      "type": "error"
    },
    {
      "inputs": [],
      "name": "InvalidWriter",
      "type": "error"
    },
    {
      "inputs": [],
      "name": "NotAdmin",
      "type": "error"
    },
    {
      "inputs": [],
      "name": "NotAuthorized",
      "type": "error"
    },
    {
      "anonymous": false,
      "inputs": [
        {
          "indexed": true,
          "internalType": "uint256",
          "name": "recordId",
          "type": "uint256"
        },
        {
          "indexed": true,
          "internalType": "uint256",
          "name": "propertyId",
          "type": "uint256"
        },
        {
          "indexed": true,
          "internalType": "address",
          "name": "actor",
          "type": "address"
        },
        {
          "indexed": false,
          "internalType": "string",
          "name": "action",
          "type": "string"
        },
        {
          "indexed": false,
          "internalType": "uint256",
          "name": "timestamp",
          "type": "uint256"
        }
      ],
      "name": "PropertyHistoryRecorded",
      "type": "event"
    },
    {
      "anonymous": false,
      "inputs": [
        {
          "indexed": true,
          "internalType": "address",
          "name": "writer",
          "type": "address"
        },
        {
          "indexed": false,
          "internalType": "bool",
          "name": "authorized",
          "type": "bool"
        }
      ],
      "name": "WriterAuthorizationUpdated",
      "type": "event"
    },
    {
      "inputs": [],
      "name": "admin",
      "outputs": [
        {
          "internalType": "address",
          "name": "",
          "type": "address"
        }
      ],
      "stateMutability": "view",
      "type": "function"
    },
    {
      "inputs": [
        {
          "internalType": "address",
          "name": "",
          "type": "address"
        }
      ],
      "name": "authorizedWriters",
      "outputs": [
        {
          "internalType": "bool",
          "name": "",
          "type": "bool"
        }
      ],
      "stateMutability": "view",
      "type": "function"
    },
    {
      "inputs": [
        {
          "internalType": "uint256",
          "name": "propertyId",
          "type": "uint256"
        }
      ],
      "name": "getFullHistory",
      "outputs": [
        {
          "components": [
            {
              "internalType": "uint256",
              "name": "recordId",
              "type": "uint256"
            },
            {
              "internalType": "uint256",
              "name": "propertyId",
              "type": "uint256"
            },
            {
              "internalType": "address",
              "name": "actor",
              "type": "address"
            },
            {
              "internalType": "string",
              "name": "action",
              "type": "string"
            },
            {
              "internalType": "string",
              "name": "details",
              "type": "string"
            },
            {
              "internalType": "uint256",
              "name": "timestamp",
              "type": "uint256"
            }
          ],
          "internalType": "struct PropertyHistory.HistoryRecord[]",
          "name": "",
          "type": "tuple[]"
        }
      ],
      "stateMutability": "view",
      "type": "function"
    },
    {
      "inputs": [
        {
          "internalType": "uint256",
          "name": "propertyId",
          "type": "uint256"
        }
      ],
      "name": "getHistory",
      "outputs": [
        {
          "components": [
            {
              "internalType": "uint256",
              "name": "recordId",
              "type": "uint256"
            },
            {
              "internalType": "uint256",
              "name": "propertyId",
              "type": "uint256"
            },
            {
              "internalType": "address",
              "name": "actor",
              "type": "address"
            },
            {
              "internalType": "string",
              "name": "action",
              "type": "string"
            },
            {
              "internalType": "string",
              "name": "details",
              "type": "string"
            },
            {
              "internalType": "uint256",
              "name": "timestamp",
              "type": "uint256"
            }
          ],
          "internalType": "struct PropertyHistory.HistoryRecord[]",
          "name": "",
          "type": "tuple[]"
        }
      ],
      "stateMutability": "view",
      "type": "function"
    },
    {
      "inputs": [
        {
          "internalType": "uint256",
          "name": "propertyId",
          "type": "uint256"
        },
        {
          "internalType": "uint256",
          "name": "offset",
          "type": "uint256"
        },
        {
          "internalType": "uint256",
          "name": "limit",
          "type": "uint256"
        }
      ],
      "name": "getHistoryByRange",
      "outputs": [
        {
          "components": [
            {
              "internalType": "uint256",
              "name": "recordId",
              "type": "uint256"
            },
            {
              "internalType": "uint256",
              "name": "propertyId",
              "type": "uint256"
            },
            {
              "internalType": "address",
              "name": "actor",
              "type": "address"
            },
            {
              "internalType": "string",
              "name": "action",
              "type": "string"
            },
            {
              "internalType": "string",
              "name": "details",
              "type": "string"
            },
            {
              "internalType": "uint256",
              "name": "timestamp",
              "type": "uint256"
            }
          ],
          "internalType": "struct PropertyHistory.HistoryRecord[]",
          "name": "",
          "type": "tuple[]"
        }
      ],
      "stateMutability": "view",
      "type": "function"
    },
    {
      "inputs": [
        {
          "internalType": "uint256",
          "name": "propertyId",
          "type": "uint256"
        }
      ],
      "name": "getHistoryCount",
      "outputs": [
        {
          "internalType": "uint256",
          "name": "",
          "type": "uint256"
        }
      ],
      "stateMutability": "view",
      "type": "function"
    },
    {
      "inputs": [],
      "name": "nextRecordId",
      "outputs": [
        {
          "internalType": "uint256",
          "name": "",
          "type": "uint256"
        }
      ],
      "stateMutability": "view",
      "type": "function"
    },
    {
      "inputs": [
        {
          "internalType": "uint256",
          "name": "propertyId",
          "type": "uint256"
        },
        {
          "internalType": "address",
          "name": "actor",
          "type": "address"
        },
        {
          "internalType": "string",
          "name": "action",
          "type": "string"
        },
        {
          "internalType": "string",
          "name": "details",
          "type": "string"
        }
      ],
      "name": "recordAction",
      "outputs": [
        {
          "internalType": "uint256",
          "name": "recordId",
          "type": "uint256"
        }
      ],
      "stateMutability": "nonpayable",
      "type": "function"
    },
    {
      "inputs": [
        {
          "internalType": "address",
          "name": "writer",
          "type": "address"
        },
        {
          "internalType": "bool",
          "name": "allowed",
          "type": "bool"
        }
      ],
      "name": "setAuthorizedWriter",
      "outputs": [],
      "stateMutability": "nonpayable",
      "type": "function"
    }
  ],
  "bytecode": "0x60a0604052600160005534801561001557600080fd5b50336080819052600081815260016020818152604092839020805460ff19168317905591519081527fa356cd9fa06f93ff3064cd1edfea27d8e05c272871977892da10bbcedf2dde2e910160405180910390a260805161100961008a6000396000818161017a01526106c201526110096000f3fe608060405234801561001057600080fd5b50600436106100935760003560e01c8063842dd3ea11610066578063842dd3ea14610126578063afa8880e14610139578063c8691b2a14610159578063dbde207d1461016c578063f851a4401461017557600080fd5b806342239cbe146100985780634c5ba4b1146100be578063526241a8146100de578063542a086c14610111575b600080fd5b6100ab6100a6366004610bb5565b6101b4565b6040519081526020015b60405180910390f35b6100d16100cc366004610c3f565b6103de565b6040516100b59190610cb1565b6101016100ec366004610d71565b60016020526000908152604090205460ff1681565b60405190151581526020016100b5565b61012461011f366004610d8c565b6106b7565b005b6100d1610134366004610dc8565b610786565b6100ab610147366004610dc8565b60009081526002602052604090205490565b6100d1610167366004610dc8565b610951565b6100ab60005481565b61019c7f000000000000000000000000000000000000000000000000000000000000000081565b6040516001600160a01b0390911681526020016100b5565b3360009081526001602052604081205460ff166101e45760405163ea8e4eb560e01b815260040160405180910390fd5b8615806101f857506001600160a01b038616155b156102165760405163b4fa3fb360e01b815260040160405180910390fd5b60008490036102385760405163b4fa3fb360e01b815260040160405180910390fd5b5060008054906001908061024c8385610df7565b9250508190555060006040518060c00160405280838152602001898152602001886001600160a01b0316815260200187878080601f016020809104026020016040519081016040528093929190818152602001838380828437600092019190915250505090825250604080516020601f8801819004810282018101909252868152918101919087908790819084018382808284376000920182905250938552505042602093840152508a81526002808352604080832080546001808201835591855293859020865160069095020193845593850151938301939093559183015191810180546001600160a01b0319166001600160a01b03909316929092179091556060820151919250829160038201906103669082610eb1565b506080820151600482019061037b9082610eb1565b5060a082015181600501555050866001600160a01b031688837f6d8ecefca2209845357ac89dcbd5c9f3de185170814df77fa2ba0e07ee40dde589898660a001516040516103cb93929190610f71565b60405180910390a4509695505050505050565b600083815260026020526040902080546060919080851061043457604080516000808252602082019092529061042a565b610417610b11565b81526020019060019003908161040f5790505b50925050506106b0565b836000036104555760405163561ce9bb60e01b815260040160405180910390fd5b60006104618587610df7565b90508181111561046e5750805b600061047a8783610faa565b905060008167ffffffffffffffff81111561049757610497610e10565b6040519080825280602002602001820160405280156104d057816020015b6104bd610b11565b8152602001906001900390816104b55790505b50905060005b828110156106a857856104e9828b610df7565b815481106104f9576104f9610fbd565b90600052602060002090600602016040518060c001604052908160008201548152602001600182015481526020016002820160009054906101000a90046001600160a01b03166001600160a01b03166001600160a01b0316815260200160038201805461056590610e26565b80601f016020809104026020016040519081016040528092919081815260200182805461059190610e26565b80156105de5780601f106105b3576101008083540402835291602001916105de565b820191906000526020600020905b8154815290600101906020018083116105c157829003601f168201915b505050505081526020016004820180546105f790610e26565b80601f016020809104026020016040519081016040528092919081815260200182805461062390610e26565b80156106705780601f1061064557610100808354040283529160200191610670565b820191906000526020600020905b81548152906001019060200180831161065357829003601f168201915b5050505050815260200160058201548152505082828151811061069557610695610fbd565b60209081029190910101526001016104d6565b509450505050505b9392505050565b336001600160a01b037f0000000000000000000000000000000000000000000000000000000000000000161461070057604051637bfa4b9f60e01b815260040160405180910390fd5b6001600160a01b0382166107275760405163050e56fb60e31b815260040160405180910390fd5b6001600160a01b038216600081815260016020908152604091829020805460ff191685151590811790915591519182527fa356cd9fa06f93ff3064cd1edfea27d8e05c272871977892da10bbcedf2dde2e910160405180910390a25050565b606060026000838152602001908152602001600020805480602002602001604051908101604052809291908181526020016000905b828210156109465760008481526020908190206040805160c081018252600686029092018054835260018101549383019390935260028301546001600160a01b03169082015260038201805491929160608401919061081990610e26565b80601f016020809104026020016040519081016040528092919081815260200182805461084590610e26565b80156108925780601f1061086757610100808354040283529160200191610892565b820191906000526020600020905b81548152906001019060200180831161087557829003601f168201915b505050505081526020016004820180546108ab90610e26565b80601f01602080910402602001604051908101604052809291908181526020018280546108d790610e26565b80156109245780601f106108f957610100808354040283529160200191610924565b820191906000526020600020905b81548152906001019060200180831161090757829003601f168201915b50505050508152602001600582015481525050815260200190600101906107bb565b505050509050919050565b606060026000838152602001908152602001600020805480602002602001604051908101604052809291908181526020016000905b828210156109465760008481526020908190206040805160c081018252600686029092018054835260018101549383019390935260028301546001600160a01b0316908201526003820180549192916060840191906109e490610e26565b80601f0160208091040260200160405190810160405280929190818152602001828054610a1090610e26565b8015610a5d5780601f10610a3257610100808354040283529160200191610a5d565b820191906000526020600020905b815481529060010190602001808311610a4057829003601f168201915b50505050508152602001600482018054610a7690610e26565b80601f0160208091040260200160405190810160405280929190818152602001828054610aa290610e26565b8015610aef5780601f10610ac457610100808354040283529160200191610aef565b820191906000526020600020905b815481529060010190602001808311610ad257829003601f168201915b5050505050815260200160058201548152505081526020019060010190610986565b6040518060c00160405280600081526020016000815260200160006001600160a01b031681526020016060815260200160608152602001600081525090565b80356001600160a01b0381168114610b6757600080fd5b919050565b60008083601f840112610b7e57600080fd5b50813567ffffffffffffffff811115610b9657600080fd5b602083019150836020828501011115610bae57600080fd5b9250929050565b60008060008060008060808789031215610bce57600080fd5b86359550610bde60208801610b50565b9450604087013567ffffffffffffffff80821115610bfb57600080fd5b610c078a838b01610b6c565b90965094506060890135915080821115610c2057600080fd5b50610c2d89828a01610b6c565b979a9699509497509295939492505050565b600080600060608486031215610c5457600080fd5b505081359360208301359350604090920135919050565b6000815180845260005b81811015610c9157602081850181015186830182015201610c75565b506000602082860101526020601f19601f83011685010191505092915050565b600060208083018184528085518083526040925060408601915060408160051b87010184880160005b83811015610d6357888303603f190185528151805184528781015188850152868101516001600160a01b03168785015260608082015160c08287018190529190610d2683880182610c6b565b9250505060808083015186830382880152610d418382610c6b565b60a0948501519790940196909652505094870194925090860190600101610cda565b509098975050505050505050565b600060208284031215610d8357600080fd5b6106b082610b50565b60008060408385031215610d9f57600080fd5b610da883610b50565b915060208301358015158114610dbd57600080fd5b809150509250929050565b600060208284031215610dda57600080fd5b5035919050565b634e487b7160e01b600052601160045260246000fd5b80820180821115610e0a57610e0a610de1565b92915050565b634e487b7160e01b600052604160045260246000fd5b600181811c90821680610e3a57607f821691505b602082108103610e5a57634e487b7160e01b600052602260045260246000fd5b50919050565b601f821115610eac576000816000526020600020601f850160051c81016020861015610e895750805b601f850160051c820191505b81811015610ea857828155600101610e95565b5050505b505050565b815167ffffffffffffffff811115610ecb57610ecb610e10565b610edf81610ed98454610e26565b84610e60565b602080601f831160018114610f145760008415610efc5750858301515b600019600386901b1c1916600185901b178555610ea8565b600085815260208120601f198616915b82811015610f4357888601518255948401946001909101908401610f24565b5085821015610f615787850151600019600388901b60f8161c191681555b5050505050600190811b01905550565b604081528260408201528284606083013760006060848301015260006060601f19601f8601168301019050826020830152949350505050565b81810381811115610e0a57610e0a610de1565b634e487b7160e01b600052603260045260246000fdfea2646970667358221220a1a716cf86f255580c76fc8641a25c11e67385f09b595d2d47d88156cf9eff4964736f6c63430008180033",
  "linkReferences": {},
  "deployedLinkReferences": {}
}